{
  "contractName": "Geekt",
  "abi": [
    {
      "inputs": [
        {
          "internalType": "string",
          "name": "handle",
          "type": "string"
        },
        {
          "internalType": "bytes32",
          "name": "city",
          "type": "bytes32"
        },
        {
          "internalType": "bytes32",
          "name": "state",
          "type": "bytes32"
        },
        {
          "internalType": "bytes32",
          "name": "country",
          "type": "bytes32"
        }
      ],
      "name": "registerNewuser",
      "outputs": [
        {
          "internalType": "bool",
          "name": "success",
          "type": "bool"
        }
      ],
      "stateMutability": "nonpayable",
      "type": "function"
    },
    {
      "inputs": [
        {
          "internalType": "string",
          "name": "imageURL",
          "type": "string"
        },
        {
          "internalType": "bytes32",
          "name": "SHA256notaryHash",
          "type": "bytes32"
        }
      ],
      "name": "addImageToUser",
      "outputs": [
        {
          "internalType": "bool",
          "name": "success",
          "type": "bool"
        }
      ],
      "stateMutability": "nonpayable",
      "type": "function"
    },
    {
      "inputs": [],
      "name": "getUsers",
      "outputs": [
        {
          "internalType": "address[]",
          "name": "",
          "type": "address[]"
        }
      ],
      "stateMutability": "view",
      "type": "function"
    },
    {
      "inputs": [
        {
          "internalType": "address",
          "name": "userAddress",
          "type": "address"
        }
      ],
      "name": "getUser",
      "outputs": [
        {
          "internalType": "string",
          "name": "",
          "type": "string"
        },
        {
          "internalType": "bytes32",
          "name": "",
          "type": "bytes32"
        },
        {
          "internalType": "bytes32",
          "name": "",
          "type": "bytes32"
        },
        {
          "internalType": "bytes32",
          "name": "",
          "type": "bytes32"
        },
        {
          "internalType": "bytes32[]",
          "name": "",
          "type": "bytes32[]"
        }
      ],
      "stateMutability": "view",
      "type": "function"
    },
    {
      "inputs": [],
      "name": "getAllImages",
      "outputs": [
        {
          "internalType": "bytes32[]",
          "name": "",
          "type": "bytes32[]"
        }
      ],
      "stateMutability": "view",
      "type": "function"
    },
    {
      "inputs": [
        {
          "internalType": "address",
          "name": "userAddress",
          "type": "address"
        }
      ],
      "name": "getUserImages",
      "outputs": [
        {
          "internalType": "bytes32[]",
          "name": "",
          "type": "bytes32[]"
        }
      ],
      "stateMutability": "view",
      "type": "function"
    },
    {
      "inputs": [
        {
          "internalType": "bytes32",
          "name": "SHA256notaryHash",
          "type": "bytes32"
        }
      ],
      "name": "getImage",
      "outputs": [
        {
          "internalType": "string",
          "name": "",
          "type": "string"
        },
        {
          "internalType": "uint256",
          "name": "",
          "type": "uint256"
        }
      ],
      "stateMutability": "view",
      "type": "function"
    }
  ],
  "bytecode": "0x608060405234801561001057600080fd5b50611172806100206000396000f3fe608060405234801561001057600080fd5b506004361061007c5760003560e01c80636f77926b1161005b5780636f77926b146101005780637b7284fc146101345780637f2a6a5c14610152578063eb6bbd78146101825761007c565b8062ce8e3e146100815780633dc0cfdd1461009f5780636ced1ae9146100cf575b600080fd5b6100896101b2565b6040516100969190610b6d565b60405180910390f35b6100b960048036038101906100b49190610d1f565b610240565b6040516100c69190610dbd565b60405180910390f35b6100e960048036038101906100e49190610dd8565b610452565b6040516100f7929190610ea6565b60405180910390f35b61011a60048036038101906101159190610f02565b610518565b60405161012b959493929190610ffc565b60405180910390f35b61013c61075f565b604051610149919061105d565b60405180910390f35b61016c6004803603810190610167919061107f565b6107b7565b6040516101799190610dbd565b60405180910390f35b61019c60048036038101906101979190610f02565b610940565b6040516101a9919061105d565b60405180910390f35b6060600480548060200260200160405190810160405280929190818152602001828054801561023657602002820191906000526020600020905b8160009054906101000a900473ffffffffffffffffffffffffffffffffffffffff1673ffffffffffffffffffffffffffffffffffffffff16815260200190600101908083116101ec575b5050505050905090565b6000803390506000600360003373ffffffffffffffffffffffffffffffffffffffff1673ffffffffffffffffffffffffffffffffffffffff16815260200190815260200160002060000180546102959061110a565b90501480156102a657506000865114155b156104445785600360008373ffffffffffffffffffffffffffffffffffffffff1673ffffffffffffffffffffffffffffffffffffffff16815260200190815260200160002060000190805190602001906103019291906109da565b5084600360008373ffffffffffffffffffffffffffffffffffffffff1673ffffffffffffffffffffffffffffffffffffffff1681526020019081526020016000206001018190555083600360008373ffffffffffffffffffffffffffffffffffffffff1673ffffffffffffffffffffffffffffffffffffffff1681526020019081526020016000206002018190555082600360008373ffffffffffffffffffffffffffffffffffffffff1673ffffffffffffffffffffffffffffffffffffffff168152602001908152602001600020600301819055506004819080600181540180825580915050600190039060005260206000200160009091909190916101000a81548173ffffffffffffffffffffffffffffffffffffffff021916908373ffffffffffffffffffffffffffffffffffffffff160217905550600191505061044a565b60009150505b949350505050565b6060600060016000848152602001908152602001600020600001600160008581526020019081526020016000206001015481805461048f9061110a565b80601f01602080910402602001604051908101604052809291908181526020018280546104bb9061110a565b80156105085780601f106104dd57610100808354040283529160200191610508565b820191906000526020600020905b8154815290600101906020018083116104eb57829003601f168201915b5050505050915091509150915091565b606060008060006060600360008773ffffffffffffffffffffffffffffffffffffffff1673ffffffffffffffffffffffffffffffffffffffff168152602001908152602001600020600001600360008873ffffffffffffffffffffffffffffffffffffffff1673ffffffffffffffffffffffffffffffffffffffff16815260200190815260200160002060010154600360008973ffffffffffffffffffffffffffffffffffffffff1673ffffffffffffffffffffffffffffffffffffffff16815260200190815260200160002060020154600360008a73ffffffffffffffffffffffffffffffffffffffff1673ffffffffffffffffffffffffffffffffffffffff16815260200190815260200160002060030154600360008b73ffffffffffffffffffffffffffffffffffffffff1673ffffffffffffffffffffffffffffffffffffffff16815260200190815260200160002060040184805461067a9061110a565b80601f01602080910402602001604051908101604052809291908181526020018280546106a69061110a565b80156106f35780601f106106c8576101008083540402835291602001916106f3565b820191906000526020600020905b8154815290600101906020018083116106d657829003601f168201915b505050505094508080548060200260200160405190810160405280929190818152602001828054801561074557602002820191906000526020600020905b815481526020019060010190808311610731575b505050505090509450945094509450945091939590929450565b606060028054806020026020016040519081016040528092919081815260200182805480156107ad57602002820191906000526020600020905b815481526020019060010190808311610799575b5050505050905090565b6000803390506000600360008373ffffffffffffffffffffffffffffffffffffffff1673ffffffffffffffffffffffffffffffffffffffff168152602001908152602001600020600001805461080c9061110a565b90501461093457600084511461092a57600060016000858152602001908152602001600020600001805461083f9061110a565b905014156108715760028390806001815401808255809150506001900390600052602060002001600090919091909150555b8360016000858152602001908152602001600020600001908051906020019061089b9291906109da565b50426001600085815260200190815260200160002060010181905550600360008273ffffffffffffffffffffffffffffffffffffffff1673ffffffffffffffffffffffffffffffffffffffff168152602001908152602001600020600401839080600181540180825580915050600190039060005260206000200160009091909190915055600191505061093a565b600091505061093a565b60009150505b92915050565b6060600360008373ffffffffffffffffffffffffffffffffffffffff1673ffffffffffffffffffffffffffffffffffffffff1681526020019081526020016000206004018054806020026020016040519081016040528092919081815260200182805480156109ce57602002820191906000526020600020905b8154815260200190600101908083116109ba575b50505050509050919050565b8280546109e69061110a565b90600052602060002090601f016020900481019282610a085760008555610a4f565b82601f10610a2157805160ff1916838001178555610a4f565b82800160010185558215610a4f579182015b82811115610a4e578251825591602001919060010190610a33565b5b509050610a5c9190610a60565b5090565b5b80821115610a79576000816000905550600101610a61565b5090565b600081519050919050565b600082825260208201905092915050565b6000819050602082019050919050565b600073ffffffffffffffffffffffffffffffffffffffff82169050919050565b6000610ad482610aa9565b9050919050565b610ae481610ac9565b82525050565b6000610af68383610adb565b60208301905092915050565b6000602082019050919050565b6000610b1a82610a7d565b610b248185610a88565b9350610b2f83610a99565b8060005b83811015610b60578151610b478882610aea565b9750610b5283610b02565b925050600181019050610b33565b5085935050505092915050565b60006020820190508181036000830152610b878184610b0f565b905092915050565b6000604051905090565b600080fd5b600080fd5b600080fd5b600080fd5b6000601f19601f8301169050919050565b7f4e487b7100000000000000000000000000000000000000000000000000000000600052604160045260246000fd5b610bf682610bad565b810181811067ffffffffffffffff82111715610c1557610c14610bbe565b5b80604052505050565b6000610c28610b8f565b9050610c348282610bed565b919050565b600067ffffffffffffffff821115610c5457610c53610bbe565b5b610c5d82610bad565b9050602081019050919050565b82818337600083830152505050565b6000610c8c610c8784610c39565b610c1e565b905082815260208101848484011115610ca857610ca7610ba8565b5b610cb3848285610c6a565b509392505050565b600082601f830112610cd057610ccf610ba3565b5b8135610ce0848260208601610c79565b91505092915050565b6000819050919050565b610cfc81610ce9565b8114610d0757600080fd5b50565b600081359050610d1981610cf3565b92915050565b60008060008060808587031215610d3957610d38610b99565b5b600085013567ffffffffffffffff811115610d5757610d56610b9e565b5b610d6387828801610cbb565b9450506020610d7487828801610d0a565b9350506040610d8587828801610d0a565b9250506060610d9687828801610d0a565b91505092959194509250565b60008115159050919050565b610db781610da2565b82525050565b6000602082019050610dd26000830184610dae565b92915050565b600060208284031215610dee57610ded610b99565b5b6000610dfc84828501610d0a565b91505092915050565b600081519050919050565b600082825260208201905092915050565b60005b83811015610e3f578082015181840152602081019050610e24565b83811115610e4e576000848401525b50505050565b6000610e5f82610e05565b610e698185610e10565b9350610e79818560208601610e21565b610e8281610bad565b840191505092915050565b6000819050919050565b610ea081610e8d565b82525050565b60006040820190508181036000830152610ec08185610e54565b9050610ecf6020830184610e97565b9392505050565b610edf81610ac9565b8114610eea57600080fd5b50565b600081359050610efc81610ed6565b92915050565b600060208284031215610f1857610f17610b99565b5b6000610f2684828501610eed565b91505092915050565b610f3881610ce9565b82525050565b600081519050919050565b600082825260208201905092915050565b6000819050602082019050919050565b610f7381610ce9565b82525050565b6000610f858383610f6a565b60208301905092915050565b6000602082019050919050565b6000610fa982610f3e565b610fb38185610f49565b9350610fbe83610f5a565b8060005b83811015610fef578151610fd68882610f79565b9750610fe183610f91565b925050600181019050610fc2565b5085935050505092915050565b600060a08201905081810360008301526110168188610e54565b90506110256020830187610f2f565b6110326040830186610f2f565b61103f6060830185610f2f565b81810360808301526110518184610f9e565b90509695505050505050565b600060208201905081810360008301526110778184610f9e565b905092915050565b6000806040838503121561109657611095610b99565b5b600083013567ffffffffffffffff8111156110b4576110b3610b9e565b5b6110c085828601610cbb565b92505060206110d185828601610d0a565b9150509250929050565b7f4e487b7100000000000000000000000000000000000000000000000000000000600052602260045260246000fd5b6000600282049050600182168061112257607f821691505b60208210811415611136576111356110db565b5b5091905056fea26469706673582212207934b5818f2e79cd1b6be04a396589d6919fa06d1d8b8557d89cc27f82743de664736f6c634300080b0033",
  "immutableReferences": {},
  "source": "// SPDX-License-Identifier: MIT\npragma solidity >=0.4.22 <0.9.0;\n\ncontract Geekt {\n\naddress GeektAdmin;\n\n  mapping ( bytes32 => notarizedImage) notarizedImages; // this allows to look up notarizedImages by their SHA256notaryHash\n  bytes32[] imagesByNotaryHash; // this is like a whitepages of all images, by SHA256notaryHash\n\n  mapping ( address => User ) Users;   // this allows to look up Users by their ethereum address\n  address[] usersByAddress;  // this is like a whitepages of all users, by ethereum address  \n\n  struct notarizedImage{\n    string imageUrl;\n    uint timeStamp;\n  }\n\n  struct User{\n    string handle;\n    bytes32 city;\n    bytes32 state;\n    bytes32 country;\n    bytes32 [] myImages;\n  }\n\n  function registerNewuser(string memory handle, bytes32 city, bytes32 state, bytes32 country ) public returns (bool success){\n    address thisNewAddress = msg.sender;\n    if (bytes(Users[msg.sender].handle).length==0 && bytes(handle).length!=0 ){\n      Users[thisNewAddress].handle =  handle;\n      Users[thisNewAddress].city = city;\n      Users[thisNewAddress].state =  state;\n      Users[thisNewAddress].country =  country;\n      usersByAddress.push(thisNewAddress);\n      return true;\n      \n    } else {\n      return false;\n    }\n  }\n\n function addImageToUser(string memory imageURL, bytes32 SHA256notaryHash) public returns (bool success) {\n    address thisNewAddress = msg.sender;\n    if(bytes(Users[thisNewAddress].handle).length != 0){ // make sure this user has created an account first\n      if(bytes(imageURL).length != 0){   // ) {  // couldn't get bytes32 null check to work, oh well!\n        // prevent users from fighting over sha->image listings in the whitepages, but still allow them to add a personal ref to any sha\n        if(bytes(notarizedImages[SHA256notaryHash].imageUrl).length == 0) {\n          imagesByNotaryHash.push(SHA256notaryHash); // adds entry for this image to our image whitepages\n        }\n        notarizedImages[SHA256notaryHash].imageUrl = imageURL;\n        notarizedImages[SHA256notaryHash].timeStamp = block.timestamp; // note that updating an image also updates the timestamp\n        Users[thisNewAddress].myImages.push(SHA256notaryHash); // add the image hash to this users .myImages array\n        return true;\n      } else {\n        return false; // either imageURL or SHA256notaryHash was null, couldn't store image\n      }\n    } else {\n      return false; // user didn't have an account yet, couldn't store image\n    }\n  }\n\n function getUsers()  public view returns (address[] memory ) { return usersByAddress; }\n\n  function getUser(address userAddress) public view returns (string memory,bytes32,bytes32,bytes32,bytes32[] memory) {\n    return (Users[userAddress].handle,Users[userAddress].city,Users[userAddress].state,Users[userAddress].country,Users[userAddress].myImages);\n  }\n\n  function getAllImages()  public view returns (bytes32[] memory) { return imagesByNotaryHash; }\n\n  function getUserImages(address userAddress)  public view returns (bytes32[] memory) { return Users[userAddress].myImages; }\n\n  function getImage(bytes32 SHA256notaryHash) public view returns (string memory,uint) {\n    return (notarizedImages[SHA256notaryHash].imageUrl,notarizedImages[SHA256notaryHash].timeStamp);\n  }\n\n\n}",
  "sourcePath": "/Users/john/Documents/blockchain/solidity-smart-contract/contracts/Geekt.sol",
  "compiler": {
    "name": "solc",
    "version": "0.8.11+commit.d7f03943.Emscripten.clang"
  },
  "schemaVersion": "3.4.4",
  "updatedAt": "2022-01-24T11:02:32.782Z",
  "devdoc": {
    "kind": "dev",
    "methods": {},
    "version": 1
  },
  "userdoc": {
    "kind": "user",
    "methods": {},
    "version": 1
  }
}